{
  "_format": "hh-sol-artifact-1",
  "contractName": "MyToken",
  "sourceName": "contracts/MyToken.sol",
  "abi": [
    {
      "inputs": [],
      "stateMutability": "nonpayable",
      "type": "constructor"
    },
    {
      "anonymous": false,
      "inputs": [
        {
          "indexed": true,
          "internalType": "address",
          "name": "owner",
          "type": "address"
        },
        {
          "indexed": true,
          "internalType": "address",
          "name": "approved",
          "type": "address"
        },
        {
          "indexed": true,
          "internalType": "uint256",
          "name": "tokenId",
          "type": "uint256"
        }
      ],
      "name": "Approval",
      "type": "event"
    },
    {
      "anonymous": false,
      "inputs": [
        {
          "indexed": true,
          "internalType": "address",
          "name": "owner",
          "type": "address"
        },
        {
          "indexed": true,
          "internalType": "address",
          "name": "operator",
          "type": "address"
        },
        {
          "indexed": false,
          "internalType": "bool",
          "name": "approved",
          "type": "bool"
        }
      ],
      "name": "ApprovalForAll",
      "type": "event"
    },
    {
      "anonymous": false,
      "inputs": [
        {
          "indexed": true,
          "internalType": "address",
          "name": "previousOwner",
          "type": "address"
        },
        {
          "indexed": true,
          "internalType": "address",
          "name": "newOwner",
          "type": "address"
        }
      ],
      "name": "OwnershipTransferred",
      "type": "event"
    },
    {
      "anonymous": false,
      "inputs": [
        {
          "indexed": true,
          "internalType": "address",
          "name": "from",
          "type": "address"
        },
        {
          "indexed": true,
          "internalType": "address",
          "name": "to",
          "type": "address"
        },
        {
          "indexed": true,
          "internalType": "uint256",
          "name": "tokenId",
          "type": "uint256"
        }
      ],
      "name": "Transfer",
      "type": "event"
    },
    {
      "inputs": [],
      "name": "airDrop",
      "outputs": [],
      "stateMutability": "nonpayable",
      "type": "function"
    },
    {
      "inputs": [
        {
          "internalType": "address",
          "name": "to",
          "type": "address"
        },
        {
          "internalType": "uint256",
          "name": "tokenId",
          "type": "uint256"
        }
      ],
      "name": "approve",
      "outputs": [],
      "stateMutability": "nonpayable",
      "type": "function"
    },
    {
      "inputs": [
        {
          "internalType": "address",
          "name": "owner",
          "type": "address"
        }
      ],
      "name": "balanceOf",
      "outputs": [
        {
          "internalType": "uint256",
          "name": "",
          "type": "uint256"
        }
      ],
      "stateMutability": "view",
      "type": "function"
    },
    {
      "inputs": [
        {
          "internalType": "uint256",
          "name": "tokenId",
          "type": "uint256"
        }
      ],
      "name": "burn",
      "outputs": [],
      "stateMutability": "nonpayable",
      "type": "function"
    },
    {
      "inputs": [
        {
          "internalType": "uint256",
          "name": "tokenId",
          "type": "uint256"
        }
      ],
      "name": "getApproved",
      "outputs": [
        {
          "internalType": "address",
          "name": "",
          "type": "address"
        }
      ],
      "stateMutability": "view",
      "type": "function"
    },
    {
      "inputs": [
        {
          "internalType": "address",
          "name": "owner",
          "type": "address"
        },
        {
          "internalType": "address",
          "name": "operator",
          "type": "address"
        }
      ],
      "name": "isApprovedForAll",
      "outputs": [
        {
          "internalType": "bool",
          "name": "",
          "type": "bool"
        }
      ],
      "stateMutability": "view",
      "type": "function"
    },
    {
      "inputs": [],
      "name": "name",
      "outputs": [
        {
          "internalType": "string",
          "name": "",
          "type": "string"
        }
      ],
      "stateMutability": "view",
      "type": "function"
    },
    {
      "inputs": [],
      "name": "owner",
      "outputs": [
        {
          "internalType": "address",
          "name": "",
          "type": "address"
        }
      ],
      "stateMutability": "view",
      "type": "function"
    },
    {
      "inputs": [
        {
          "internalType": "uint256",
          "name": "tokenId",
          "type": "uint256"
        }
      ],
      "name": "ownerOf",
      "outputs": [
        {
          "internalType": "address",
          "name": "",
          "type": "address"
        }
      ],
      "stateMutability": "view",
      "type": "function"
    },
    {
      "inputs": [],
      "name": "renounceOwnership",
      "outputs": [],
      "stateMutability": "nonpayable",
      "type": "function"
    },
    {
      "inputs": [
        {
          "internalType": "address",
          "name": "to",
          "type": "address"
        }
      ],
      "name": "safeMint",
      "outputs": [],
      "stateMutability": "nonpayable",
      "type": "function"
    },
    {
      "inputs": [
        {
          "internalType": "address",
          "name": "from",
          "type": "address"
        },
        {
          "internalType": "address",
          "name": "to",
          "type": "address"
        },
        {
          "internalType": "uint256",
          "name": "tokenId",
          "type": "uint256"
        }
      ],
      "name": "safeTransferFrom",
      "outputs": [],
      "stateMutability": "nonpayable",
      "type": "function"
    },
    {
      "inputs": [
        {
          "internalType": "address",
          "name": "from",
          "type": "address"
        },
        {
          "internalType": "address",
          "name": "to",
          "type": "address"
        },
        {
          "internalType": "uint256",
          "name": "tokenId",
          "type": "uint256"
        },
        {
          "internalType": "bytes",
          "name": "_data",
          "type": "bytes"
        }
      ],
      "name": "safeTransferFrom",
      "outputs": [],
      "stateMutability": "nonpayable",
      "type": "function"
    },
    {
      "inputs": [
        {
          "internalType": "address",
          "name": "operator",
          "type": "address"
        },
        {
          "internalType": "bool",
          "name": "approved",
          "type": "bool"
        }
      ],
      "name": "setApprovalForAll",
      "outputs": [],
      "stateMutability": "nonpayable",
      "type": "function"
    },
    {
      "inputs": [
        {
          "internalType": "bytes4",
          "name": "interfaceId",
          "type": "bytes4"
        }
      ],
      "name": "supportsInterface",
      "outputs": [
        {
          "internalType": "bool",
          "name": "",
          "type": "bool"
        }
      ],
      "stateMutability": "view",
      "type": "function"
    },
    {
      "inputs": [],
      "name": "symbol",
      "outputs": [
        {
          "internalType": "string",
          "name": "",
          "type": "string"
        }
      ],
      "stateMutability": "view",
      "type": "function"
    },
    {
      "inputs": [
        {
          "internalType": "uint256",
          "name": "tokenId",
          "type": "uint256"
        }
      ],
      "name": "tokenURI",
      "outputs": [
        {
          "internalType": "string",
          "name": "",
          "type": "string"
        }
      ],
      "stateMutability": "view",
      "type": "function"
    },
    {
      "inputs": [
        {
          "internalType": "address",
          "name": "from",
          "type": "address"
        },
        {
          "internalType": "address",
          "name": "to",
          "type": "address"
        },
        {
          "internalType": "uint256",
          "name": "tokenId",
          "type": "uint256"
        }
      ],
      "name": "transferFrom",
      "outputs": [],
      "stateMutability": "nonpayable",
      "type": "function"
    },
    {
      "inputs": [
        {
          "internalType": "address",
          "name": "newOwner",
          "type": "address"
        }
      ],
      "name": "transferOwnership",
      "outputs": [],
      "stateMutability": "nonpayable",
      "type": "function"
    }
  ],
  "bytecode": "0x60806040523480156200001157600080fd5b506040518060400160405280600781526020017f4d79546f6b656e000000000000000000000000000000000000000000000000008152506040518060400160405280600381526020017f4d544b000000000000000000000000000000000000000000000000000000000081525081600090816200008f919062000412565b508060019081620000a1919062000412565b505050620000c4620000b8620000ca60201b60201c565b620000d260201b60201c565b620004f9565b600033905090565b6000600660009054906101000a900473ffffffffffffffffffffffffffffffffffffffff16905081600660006101000a81548173ffffffffffffffffffffffffffffffffffffffff021916908373ffffffffffffffffffffffffffffffffffffffff1602179055508173ffffffffffffffffffffffffffffffffffffffff168173ffffffffffffffffffffffffffffffffffffffff167f8be0079c531659141344cd1fd0a4f28419497f9722a3daafe3b4186f6b6457e060405160405180910390a35050565b600081519050919050565b7f4e487b7100000000000000000000000000000000000000000000000000000000600052604160045260246000fd5b7f4e487b7100000000000000000000000000000000000000000000000000000000600052602260045260246000fd5b600060028204905060018216806200021a57607f821691505b60208210810362000230576200022f620001d2565b5b50919050565b60008190508160005260206000209050919050565b60006020601f8301049050919050565b600082821b905092915050565b6000600883026200029a7fffffffffffffffffffffffffffffffffffffffffffffffffffffffffffffffff826200025b565b620002a686836200025b565b95508019841693508086168417925050509392505050565b6000819050919050565b6000819050919050565b6000620002f3620002ed620002e784620002be565b620002c8565b620002be565b9050919050565b6000819050919050565b6200030f83620002d2565b620003276200031e82620002fa565b84845462000268565b825550505050565b600090565b6200033e6200032f565b6200034b81848462000304565b505050565b5b8181101562000373576200036760008262000334565b60018101905062000351565b5050565b601f821115620003c2576200038c8162000236565b62000397846200024b565b81016020851015620003a7578190505b620003bf620003b6856200024b565b83018262000350565b50505b505050565b600082821c905092915050565b6000620003e760001984600802620003c7565b1980831691505092915050565b6000620004028383620003d4565b9150826002028217905092915050565b6200041d8262000198565b67ffffffffffffffff811115620004395762000438620001a3565b5b62000445825462000201565b6200045282828562000377565b600060209050601f8311600181146200048a576000841562000475578287015190505b620004818582620003f4565b865550620004f1565b601f1984166200049a8662000236565b60005b82811015620004c4578489015182556001820191506020850194506020810190506200049d565b86831015620004e45784890151620004e0601f891682620003d4565b8355505b6001600288020188555050505b505050505050565b612dba80620005096000396000f3fe608060405234801561001057600080fd5b50600436106101215760003560e01c806370a08231116100ad578063b88d4fde11610071578063b88d4fde146102f2578063c87b56dd1461030e578063ca5d08801461033e578063e985e9c514610348578063f2fde38b1461037857610121565b806370a0823114610260578063715018a6146102905780638da5cb5b1461029a57806395d89b41146102b8578063a22cb465146102d657610121565b806323b872dd116100f457806323b872dd146101c057806340d097c3146101dc57806342842e0e146101f857806342966c68146102145780636352211e1461023057610121565b806301ffc9a71461012657806306fdde0314610156578063081812fc14610174578063095ea7b3146101a4575b600080fd5b610140600480360381019061013b9190611bda565b610394565b60405161014d9190611c22565b60405180910390f35b61015e610476565b60405161016b9190611ccd565b60405180910390f35b61018e60048036038101906101899190611d25565b610508565b60405161019b9190611d93565b60405180910390f35b6101be60048036038101906101b99190611dda565b61058d565b005b6101da60048036038101906101d59190611e1a565b6106a4565b005b6101f660048036038101906101f19190611e6d565b610704565b005b610212600480360381019061020d9190611e1a565b6107a9565b005b61022e60048036038101906102299190611d25565b6107c9565b005b61024a60048036038101906102459190611d25565b610825565b6040516102579190611d93565b60405180910390f35b61027a60048036038101906102759190611e6d565b6108d6565b6040516102879190611ea9565b60405180910390f35b61029861098d565b005b6102a2610a15565b6040516102af9190611d93565b60405180910390f35b6102c0610a3f565b6040516102cd9190611ccd565b60405180910390f35b6102f060048036038101906102eb9190611ef0565b610ad1565b005b61030c60048036038101906103079190612065565b610ae7565b005b61032860048036038101906103239190611d25565b610b49565b6040516103359190611ccd565b60405180910390f35b610346610bf0565b005b610362600480360381019061035d91906120e8565b610c18565b60405161036f9190611c22565b60405180910390f35b610392600480360381019061038d9190611e6d565b610cac565b005b60007f80ac58cd000000000000000000000000000000000000000000000000000000007bffffffffffffffffffffffffffffffffffffffffffffffffffffffff1916827bffffffffffffffffffffffffffffffffffffffffffffffffffffffff1916148061045f57507f5b5e139f000000000000000000000000000000000000000000000000000000007bffffffffffffffffffffffffffffffffffffffffffffffffffffffff1916827bffffffffffffffffffffffffffffffffffffffffffffffffffffffff1916145b8061046f575061046e82610da3565b5b9050919050565b60606000805461048590612157565b80601f01602080910402602001604051908101604052809291908181526020018280546104b190612157565b80156104fe5780601f106104d3576101008083540402835291602001916104fe565b820191906000526020600020905b8154815290600101906020018083116104e157829003601f168201915b5050505050905090565b600061051382610e0d565b610552576040517f08c379a0000000000000000000000000000000000000000000000000000000008152600401610549906121fa565b60405180910390fd5b6004600083815260200190815260200160002060009054906101000a900473ffffffffffffffffffffffffffffffffffffffff169050919050565b600061059882610825565b90508073ffffffffffffffffffffffffffffffffffffffff168373ffffffffffffffffffffffffffffffffffffffff1603610608576040517f08c379a00000000000000000000000000000000000000000000000000000000081526004016105ff9061228c565b60405180910390fd5b8073ffffffffffffffffffffffffffffffffffffffff16610627610e79565b73ffffffffffffffffffffffffffffffffffffffff161480610656575061065581610650610e79565b610c18565b5b610695576040517f08c379a000000000000000000000000000000000000000000000000000000000815260040161068c9061231e565b60405180910390fd5b61069f8383610e81565b505050565b6106b56106af610e79565b82610f3a565b6106f4576040517f08c379a00000000000000000000000000000000000000000000000000000000081526004016106eb906123b0565b60405180910390fd5b6106ff838383611018565b505050565b61070c610e79565b73ffffffffffffffffffffffffffffffffffffffff1661072a610a15565b73ffffffffffffffffffffffffffffffffffffffff1614610780576040517f08c379a00000000000000000000000000000000000000000000000000000000081526004016107779061241c565b60405180910390fd5b61078c81600754611273565b60016007600082825461079f919061246b565b9250508190555050565b6107c483838360405180602001604052806000815250610ae7565b505050565b6107da6107d4610e79565b82610f3a565b610819576040517f08c379a000000000000000000000000000000000000000000000000000000000815260040161081090612511565b60405180910390fd5b61082281611291565b50565b6000806002600084815260200190815260200160002060009054906101000a900473ffffffffffffffffffffffffffffffffffffffff169050600073ffffffffffffffffffffffffffffffffffffffff168173ffffffffffffffffffffffffffffffffffffffff16036108cd576040517f08c379a00000000000000000000000000000000000000000000000000000000081526004016108c4906125a3565b60405180910390fd5b80915050919050565b60008073ffffffffffffffffffffffffffffffffffffffff168273ffffffffffffffffffffffffffffffffffffffff1603610946576040517f08c379a000000000000000000000000000000000000000000000000000000000815260040161093d90612635565b60405180910390fd5b600360008373ffffffffffffffffffffffffffffffffffffffff1673ffffffffffffffffffffffffffffffffffffffff168152602001908152602001600020549050919050565b610995610e79565b73ffffffffffffffffffffffffffffffffffffffff166109b3610a15565b73ffffffffffffffffffffffffffffffffffffffff1614610a09576040517f08c379a0000000000000000000000000000000000000000000000000000000008152600401610a009061241c565b60405180910390fd5b610a1360006113a2565b565b6000600660009054906101000a900473ffffffffffffffffffffffffffffffffffffffff16905090565b606060018054610a4e90612157565b80601f0160208091040260200160405190810160405280929190818152602001828054610a7a90612157565b8015610ac75780601f10610a9c57610100808354040283529160200191610ac7565b820191906000526020600020905b815481529060010190602001808311610aaa57829003601f168201915b5050505050905090565b610ae3610adc610e79565b8383611468565b5050565b610af8610af2610e79565b83610f3a565b610b37576040517f08c379a0000000000000000000000000000000000000000000000000000000008152600401610b2e906123b0565b60405180910390fd5b610b43848484846115d4565b50505050565b6060610b5482610e0d565b610b93576040517f08c379a0000000000000000000000000000000000000000000000000000000008152600401610b8a906126c7565b60405180910390fd5b6000610b9d611630565b90506000815111610bbd5760405180602001604052806000815250610be8565b80610bc784611647565b604051602001610bd8929190612723565b6040516020818303038152906040525b915050919050565b610bfc336007546117a7565b600160076000828254610c0f919061246b565b92505081905550565b6000600560008473ffffffffffffffffffffffffffffffffffffffff1673ffffffffffffffffffffffffffffffffffffffff16815260200190815260200160002060008373ffffffffffffffffffffffffffffffffffffffff1673ffffffffffffffffffffffffffffffffffffffff16815260200190815260200160002060009054906101000a900460ff16905092915050565b610cb4610e79565b73ffffffffffffffffffffffffffffffffffffffff16610cd2610a15565b73ffffffffffffffffffffffffffffffffffffffff1614610d28576040517f08c379a0000000000000000000000000000000000000000000000000000000008152600401610d1f9061241c565b60405180910390fd5b600073ffffffffffffffffffffffffffffffffffffffff168173ffffffffffffffffffffffffffffffffffffffff1603610d97576040517f08c379a0000000000000000000000000000000000000000000000000000000008152600401610d8e906127b9565b60405180910390fd5b610da0816113a2565b50565b60007f01ffc9a7000000000000000000000000000000000000000000000000000000007bffffffffffffffffffffffffffffffffffffffffffffffffffffffff1916827bffffffffffffffffffffffffffffffffffffffffffffffffffffffff1916149050919050565b60008073ffffffffffffffffffffffffffffffffffffffff166002600084815260200190815260200160002060009054906101000a900473ffffffffffffffffffffffffffffffffffffffff1673ffffffffffffffffffffffffffffffffffffffff1614159050919050565b600033905090565b816004600083815260200190815260200160002060006101000a81548173ffffffffffffffffffffffffffffffffffffffff021916908373ffffffffffffffffffffffffffffffffffffffff160217905550808273ffffffffffffffffffffffffffffffffffffffff16610ef483610825565b73ffffffffffffffffffffffffffffffffffffffff167f8c5be1e5ebec7d5bd14f71427d1e84f3dd0314c0f7b2291e5b200ac8c7c3b92560405160405180910390a45050565b6000610f4582610e0d565b610f84576040517f08c379a0000000000000000000000000000000000000000000000000000000008152600401610f7b9061284b565b60405180910390fd5b6000610f8f83610825565b90508073ffffffffffffffffffffffffffffffffffffffff168473ffffffffffffffffffffffffffffffffffffffff161480610ffe57508373ffffffffffffffffffffffffffffffffffffffff16610fe684610508565b73ffffffffffffffffffffffffffffffffffffffff16145b8061100f575061100e8185610c18565b5b91505092915050565b8273ffffffffffffffffffffffffffffffffffffffff1661103882610825565b73ffffffffffffffffffffffffffffffffffffffff161461108e576040517f08c379a0000000000000000000000000000000000000000000000000000000008152600401611085906128dd565b60405180910390fd5b600073ffffffffffffffffffffffffffffffffffffffff168273ffffffffffffffffffffffffffffffffffffffff16036110fd576040517f08c379a00000000000000000000000000000000000000000000000000000000081526004016110f49061296f565b60405180910390fd5b611108838383611974565b611113600082610e81565b6001600360008573ffffffffffffffffffffffffffffffffffffffff1673ffffffffffffffffffffffffffffffffffffffff1681526020019081526020016000206000828254611163919061298f565b925050819055506001600360008473ffffffffffffffffffffffffffffffffffffffff1673ffffffffffffffffffffffffffffffffffffffff16815260200190815260200160002060008282546111ba919061246b565b92505081905550816002600083815260200190815260200160002060006101000a81548173ffffffffffffffffffffffffffffffffffffffff021916908373ffffffffffffffffffffffffffffffffffffffff160217905550808273ffffffffffffffffffffffffffffffffffffffff168473ffffffffffffffffffffffffffffffffffffffff167fddf252ad1be2c89b69c2b068fc378daa952ba7f163c4a11628f55a4df523b3ef60405160405180910390a4505050565b61128d828260405180602001604052806000815250611979565b5050565b600061129c82610825565b90506112aa81600084611974565b6112b5600083610e81565b6001600360008373ffffffffffffffffffffffffffffffffffffffff1673ffffffffffffffffffffffffffffffffffffffff1681526020019081526020016000206000828254611305919061298f565b925050819055506002600083815260200190815260200160002060006101000a81549073ffffffffffffffffffffffffffffffffffffffff021916905581600073ffffffffffffffffffffffffffffffffffffffff168273ffffffffffffffffffffffffffffffffffffffff167fddf252ad1be2c89b69c2b068fc378daa952ba7f163c4a11628f55a4df523b3ef60405160405180910390a45050565b6000600660009054906101000a900473ffffffffffffffffffffffffffffffffffffffff16905081600660006101000a81548173ffffffffffffffffffffffffffffffffffffffff021916908373ffffffffffffffffffffffffffffffffffffffff1602179055508173ffffffffffffffffffffffffffffffffffffffff168173ffffffffffffffffffffffffffffffffffffffff167f8be0079c531659141344cd1fd0a4f28419497f9722a3daafe3b4186f6b6457e060405160405180910390a35050565b8173ffffffffffffffffffffffffffffffffffffffff168373ffffffffffffffffffffffffffffffffffffffff16036114d6576040517f08c379a00000000000000000000000000000000000000000000000000000000081526004016114cd90612a0f565b60405180910390fd5b80600560008573ffffffffffffffffffffffffffffffffffffffff1673ffffffffffffffffffffffffffffffffffffffff16815260200190815260200160002060008473ffffffffffffffffffffffffffffffffffffffff1673ffffffffffffffffffffffffffffffffffffffff16815260200190815260200160002060006101000a81548160ff0219169083151502179055508173ffffffffffffffffffffffffffffffffffffffff168373ffffffffffffffffffffffffffffffffffffffff167f17307eab39ab6107e8899845ad3d59bd9653f200f220920489ca2b5937696c31836040516115c79190611c22565b60405180910390a3505050565b6115df848484611018565b6115eb848484846119d4565b61162a576040517f08c379a000000000000000000000000000000000000000000000000000000000815260040161162190612aa1565b60405180910390fd5b50505050565b606060405180602001604052806000815250905090565b60606000820361168e576040518060400160405280600181526020017f300000000000000000000000000000000000000000000000000000000000000081525090506117a2565b600082905060005b600082146116c05780806116a990612ac1565b915050600a826116b99190612b38565b9150611696565b60008167ffffffffffffffff8111156116dc576116db611f3a565b5b6040519080825280601f01601f19166020018201604052801561170e5781602001600182028036833780820191505090505b5090505b6000851461179b57600182611727919061298f565b9150600a856117369190612b69565b6030611742919061246b565b60f81b81838151811061175857611757612b9a565b5b60200101907effffffffffffffffffffffffffffffffffffffffffffffffffffffffffffff1916908160001a905350600a856117949190612b38565b9450611712565b8093505050505b919050565b600073ffffffffffffffffffffffffffffffffffffffff168273ffffffffffffffffffffffffffffffffffffffff1603611816576040517f08c379a000000000000000000000000000000000000000000000000000000000815260040161180d90612c15565b60405180910390fd5b61181f81610e0d565b1561185f576040517f08c379a000000000000000000000000000000000000000000000000000000000815260040161185690612c81565b60405180910390fd5b61186b60008383611974565b6001600360008473ffffffffffffffffffffffffffffffffffffffff1673ffffffffffffffffffffffffffffffffffffffff16815260200190815260200160002060008282546118bb919061246b565b92505081905550816002600083815260200190815260200160002060006101000a81548173ffffffffffffffffffffffffffffffffffffffff021916908373ffffffffffffffffffffffffffffffffffffffff160217905550808273ffffffffffffffffffffffffffffffffffffffff16600073ffffffffffffffffffffffffffffffffffffffff167fddf252ad1be2c89b69c2b068fc378daa952ba7f163c4a11628f55a4df523b3ef60405160405180910390a45050565b505050565b61198383836117a7565b61199060008484846119d4565b6119cf576040517f08c379a00000000000000000000000000000000000000000000000000000000081526004016119c690612aa1565b60405180910390fd5b505050565b60006119f58473ffffffffffffffffffffffffffffffffffffffff16611b5b565b15611b4e578373ffffffffffffffffffffffffffffffffffffffff1663150b7a02611a1e610e79565b8786866040518563ffffffff1660e01b8152600401611a409493929190612cf6565b6020604051808303816000875af1925050508015611a7c57506040513d601f19601f82011682018060405250810190611a799190612d57565b60015b611afe573d8060008114611aac576040519150601f19603f3d011682016040523d82523d6000602084013e611ab1565b606091505b506000815103611af6576040517f08c379a0000000000000000000000000000000000000000000000000000000008152600401611aed90612aa1565b60405180910390fd5b805181602001fd5b63150b7a0260e01b7bffffffffffffffffffffffffffffffffffffffffffffffffffffffff1916817bffffffffffffffffffffffffffffffffffffffffffffffffffffffff191614915050611b53565b600190505b949350505050565b600080823b905060008111915050919050565b6000604051905090565b600080fd5b600080fd5b60007fffffffff0000000000000000000000000000000000000000000000000000000082169050919050565b611bb781611b82565b8114611bc257600080fd5b50565b600081359050611bd481611bae565b92915050565b600060208284031215611bf057611bef611b78565b5b6000611bfe84828501611bc5565b91505092915050565b60008115159050919050565b611c1c81611c07565b82525050565b6000602082019050611c376000830184611c13565b92915050565b600081519050919050565b600082825260208201905092915050565b60005b83811015611c77578082015181840152602081019050611c5c565b60008484015250505050565b6000601f19601f8301169050919050565b6000611c9f82611c3d565b611ca98185611c48565b9350611cb9818560208601611c59565b611cc281611c83565b840191505092915050565b60006020820190508181036000830152611ce78184611c94565b905092915050565b6000819050919050565b611d0281611cef565b8114611d0d57600080fd5b50565b600081359050611d1f81611cf9565b92915050565b600060208284031215611d3b57611d3a611b78565b5b6000611d4984828501611d10565b91505092915050565b600073ffffffffffffffffffffffffffffffffffffffff82169050919050565b6000611d7d82611d52565b9050919050565b611d8d81611d72565b82525050565b6000602082019050611da86000830184611d84565b92915050565b611db781611d72565b8114611dc257600080fd5b50565b600081359050611dd481611dae565b92915050565b60008060408385031215611df157611df0611b78565b5b6000611dff85828601611dc5565b9250506020611e1085828601611d10565b9150509250929050565b600080600060608486031215611e3357611e32611b78565b5b6000611e4186828701611dc5565b9350506020611e5286828701611dc5565b9250506040611e6386828701611d10565b9150509250925092565b600060208284031215611e8357611e82611b78565b5b6000611e9184828501611dc5565b91505092915050565b611ea381611cef565b82525050565b6000602082019050611ebe6000830184611e9a565b92915050565b611ecd81611c07565b8114611ed857600080fd5b50565b600081359050611eea81611ec4565b92915050565b60008060408385031215611f0757611f06611b78565b5b6000611f1585828601611dc5565b9250506020611f2685828601611edb565b9150509250929050565b600080fd5b600080fd5b7f4e487b7100000000000000000000000000000000000000000000000000000000600052604160045260246000fd5b611f7282611c83565b810181811067ffffffffffffffff82111715611f9157611f90611f3a565b5b80604052505050565b6000611fa4611b6e565b9050611fb08282611f69565b919050565b600067ffffffffffffffff821115611fd057611fcf611f3a565b5b611fd982611c83565b9050602081019050919050565b82818337600083830152505050565b600061200861200384611fb5565b611f9a565b90508281526020810184848401111561202457612023611f35565b5b61202f848285611fe6565b509392505050565b600082601f83011261204c5761204b611f30565b5b813561205c848260208601611ff5565b91505092915050565b6000806000806080858703121561207f5761207e611b78565b5b600061208d87828801611dc5565b945050602061209e87828801611dc5565b93505060406120af87828801611d10565b925050606085013567ffffffffffffffff8111156120d0576120cf611b7d565b5b6120dc87828801612037565b91505092959194509250565b600080604083850312156120ff576120fe611b78565b5b600061210d85828601611dc5565b925050602061211e85828601611dc5565b9150509250929050565b7f4e487b7100000000000000000000000000000000000000000000000000000000600052602260045260246000fd5b6000600282049050600182168061216f57607f821691505b60208210810361218257612181612128565b5b50919050565b7f4552433732313a20617070726f76656420717565727920666f72206e6f6e657860008201527f697374656e7420746f6b656e0000000000000000000000000000000000000000602082015250565b60006121e4602c83611c48565b91506121ef82612188565b604082019050919050565b60006020820190508181036000830152612213816121d7565b9050919050565b7f4552433732313a20617070726f76616c20746f2063757272656e74206f776e6560008201527f7200000000000000000000000000000000000000000000000000000000000000602082015250565b6000612276602183611c48565b91506122818261221a565b604082019050919050565b600060208201905081810360008301526122a581612269565b9050919050565b7f4552433732313a20617070726f76652063616c6c6572206973206e6f74206f7760008201527f6e6572206e6f7220617070726f76656420666f7220616c6c0000000000000000602082015250565b6000612308603883611c48565b9150612313826122ac565b604082019050919050565b60006020820190508181036000830152612337816122fb565b9050919050565b7f4552433732313a207472616e736665722063616c6c6572206973206e6f74206f60008201527f776e6572206e6f7220617070726f766564000000000000000000000000000000602082015250565b600061239a603183611c48565b91506123a58261233e565b604082019050919050565b600060208201905081810360008301526123c98161238d565b9050919050565b7f4f776e61626c653a2063616c6c6572206973206e6f7420746865206f776e6572600082015250565b6000612406602083611c48565b9150612411826123d0565b602082019050919050565b60006020820190508181036000830152612435816123f9565b9050919050565b7f4e487b7100000000000000000000000000000000000000000000000000000000600052601160045260246000fd5b600061247682611cef565b915061248183611cef565b92508282019050808211156124995761249861243c565b5b92915050565b7f4552433732313a2063616c6c6572206973206e6f7420746f6b656e206f776e6560008201527f72206e6f7220617070726f766564000000000000000000000000000000000000602082015250565b60006124fb602e83611c48565b91506125068261249f565b604082019050919050565b6000602082019050818103600083015261252a816124ee565b9050919050565b7f4552433732313a206f776e657220717565727920666f72206e6f6e657869737460008201527f656e7420746f6b656e0000000000000000000000000000000000000000000000602082015250565b600061258d602983611c48565b915061259882612531565b604082019050919050565b600060208201905081810360008301526125bc81612580565b9050919050565b7f4552433732313a2062616c616e636520717565727920666f7220746865207a6560008201527f726f206164647265737300000000000000000000000000000000000000000000602082015250565b600061261f602a83611c48565b915061262a826125c3565b604082019050919050565b6000602082019050818103600083015261264e81612612565b9050919050565b7f4552433732314d657461646174613a2055524920717565727920666f72206e6f60008201527f6e6578697374656e7420746f6b656e0000000000000000000000000000000000602082015250565b60006126b1602f83611c48565b91506126bc82612655565b604082019050919050565b600060208201905081810360008301526126e0816126a4565b9050919050565b600081905092915050565b60006126fd82611c3d565b61270781856126e7565b9350612717818560208601611c59565b80840191505092915050565b600061272f82856126f2565b915061273b82846126f2565b91508190509392505050565b7f4f776e61626c653a206e6577206f776e657220697320746865207a65726f206160008201527f6464726573730000000000000000000000000000000000000000000000000000602082015250565b60006127a3602683611c48565b91506127ae82612747565b604082019050919050565b600060208201905081810360008301526127d281612796565b9050919050565b7f4552433732313a206f70657261746f7220717565727920666f72206e6f6e657860008201527f697374656e7420746f6b656e0000000000000000000000000000000000000000602082015250565b6000612835602c83611c48565b9150612840826127d9565b604082019050919050565b6000602082019050818103600083015261286481612828565b9050919050565b7f4552433732313a207472616e73666572206f6620746f6b656e2074686174206960008201527f73206e6f74206f776e0000000000000000000000000000000000000000000000602082015250565b60006128c7602983611c48565b91506128d28261286b565b604082019050919050565b600060208201905081810360008301526128f6816128ba565b9050919050565b7f4552433732313a207472616e7366657220746f20746865207a65726f2061646460008201527f7265737300000000000000000000000000000000000000000000000000000000602082015250565b6000612959602483611c48565b9150612964826128fd565b604082019050919050565b600060208201905081810360008301526129888161294c565b9050919050565b600061299a82611cef565b91506129a583611cef565b92508282039050818111156129bd576129bc61243c565b5b92915050565b7f4552433732313a20617070726f766520746f2063616c6c657200000000000000600082015250565b60006129f9601983611c48565b9150612a04826129c3565b602082019050919050565b60006020820190508181036000830152612a28816129ec565b9050919050565b7f4552433732313a207472616e7366657220746f206e6f6e20455243373231526560008201527f63656976657220696d706c656d656e7465720000000000000000000000000000602082015250565b6000612a8b603283611c48565b9150612a9682612a2f565b604082019050919050565b60006020820190508181036000830152612aba81612a7e565b9050919050565b6000612acc82611cef565b91507fffffffffffffffffffffffffffffffffffffffffffffffffffffffffffffffff8203612afe57612afd61243c565b5b600182019050919050565b7f4e487b7100000000000000000000000000000000000000000000000000000000600052601260045260246000fd5b6000612b4382611cef565b9150612b4e83611cef565b925082612b5e57612b5d612b09565b5b828204905092915050565b6000612b7482611cef565b9150612b7f83611cef565b925082612b8f57612b8e612b09565b5b828206905092915050565b7f4e487b7100000000000000000000000000000000000000000000000000000000600052603260045260246000fd5b7f4552433732313a206d696e7420746f20746865207a65726f2061646472657373600082015250565b6000612bff602083611c48565b9150612c0a82612bc9565b602082019050919050565b60006020820190508181036000830152612c2e81612bf2565b9050919050565b7f4552433732313a20746f6b656e20616c7265616479206d696e74656400000000600082015250565b6000612c6b601c83611c48565b9150612c7682612c35565b602082019050919050565b60006020820190508181036000830152612c9a81612c5e565b9050919050565b600081519050919050565b600082825260208201905092915050565b6000612cc882612ca1565b612cd28185612cac565b9350612ce2818560208601611c59565b612ceb81611c83565b840191505092915050565b6000608082019050612d0b6000830187611d84565b612d186020830186611d84565b612d256040830185611e9a565b8181036060830152612d378184612cbd565b905095945050505050565b600081519050612d5181611bae565b92915050565b600060208284031215612d6d57612d6c611b78565b5b6000612d7b84828501612d42565b9150509291505056fea26469706673582212204cee41ec04269d04ec169189f25bb61f0e07fd45e8e035304d77c5645cbedb2764736f6c63430008110033",
  "linkReferences": {},
  "deployedLinkReferences": {}
}